:020000040800F2
:1000000000000220DD190008DB190008D9190008DA
:10001000D9190008D9190008D919000800000000F2
:10002000000000000000000000000000DB190008D4
:10003000DB19000800000000DB190008AD01000812
:10004000D9190008D9190008D9190008D9190008C8
:10005000D9190008D9190008D9190008D9190008B8
:10006000D9190008D9190008D9190008D9190008A8
:10007000D9190008D9190008D9190008D919000898
:10008000D9190008D9190008D9190008D919000888
:10009000D9190008D9190008D9190008D919000878
:1000A000D9190008D9190008D9190008D919000868
:1000B000D9190008D9190008D9190008D919000858
:1000C000D9190008D9190008D9190008D919000848
:1000D000D91900080D030008D9190008D91900081A
:1000E000D9190008D9190008D9190008D919000828
:1000F000D9190008D9190008D9190008D919000818
:10010000D9190008D9190008D9190008D919000807
:10011000D9190008D9190008D9190008D9190008F7
:10012000D9190008D9190008D9190008D9190008E7
:10013000D9190008D9190008D9190008D9190008D7
:10014000D9190008D9190008D9190008D9190008C7
:10015000D9190008D9190008D9190008D9190008B7
:10016000D9190008D9190008D9190008D9190008A7
:10017000D9190008D9190008D9190008D919000897
:10018000D9190008D9190008D9190008D919000887
:10019000D9190008D9190008D9190008D919000877
:1001A000D9190008D9190008D9190008024A13689A
:1001B00001331360704700BF4C000020034B1A68E6
:1001C00010441A689042FCD8704700BF4C000020D1
:1001D00008B50C4801F004FA0B4A0C48136843F0C8
:1001E000450313600A4A136843F08063136001F00B
:1001F00041FC042001F046FC01F058FCBDE8084039
:1002000001F04CBC08220008303802403F90020048
:1002100000180240F7B56425002705F130061424C4
:1002200004F130022046009733462946323400F06C
:100230000AFCDC2CF4D13235B5F5967FEDD103B054
:10024000F0BD00001FB50D4B1B681B0411D403AAA1
:1002500002A901A801F0F6F80298019B3222643845
:10026000143B90FBF2F093FBF2F303EB8000413080
:1002700000E0002005B05DF804FB00BF1000024064
:1002800073B51D4C1D4DFFF7A3FF00F069F800F09A
:10029000B3F81B4B236020461023636000F0D2FFAD
:1002A000002323610123A360164917480423A36197
:1002B000636100F02FFAFFF7ADFF00F04FFB502411
:1002C0004FF6FF762B68DB070CD56CB9214620462C
:1002D00040F23F13EF22009600F0B5FB502400F0EF
:1002E0003DFB01E004B1013CFFF7ACFF0028E9D081
:1002F00000F02AF8E6E700BF3000002010000240BE
:10030000041B0008F81A0008450B00080A4B0B49AB
:10031000186870B50A4C0B4D1A460E4683060AD56E
:100320000B682068E8540B680133402BA8BF0023FA
:1003300033601068F2E770BD0010014050000020EB
:100340000410014058000020034A13681B06FCD526
:10035000024BC0B218607047001001400410014009
:1003600010B5214C4FF4C06001F0BCFA4FF4C063EB
:1003700020460022022101F07FF94FF4C0620721DC
:10038000204601F0B6F9A4F5704440F6840001F06F
:10039000A9FA4FF49641204601F05CFA0821204664
:1003A00001F070FA0021204601F075FA0C21204678
:1003B00001F07DFA0021204601F073FA0021204669
:1003C00001F07BFA204601F07EFA252001F076FB51
:1003D000064A00231360064A1360064A136843F076
:1003E0002003136010BD00BF000002405000002039
:1003F000540000200C100140F8B540F2016001F0FB
:1004000071FA40F2026001F06DFA40F2036001F00F
:1004100069FA40F2046001F065FA40F2056001F00B
:1004200061FA40F2066001F05DFA294F00243B19A1
:10043000E5599E88002233460221284601F01CF926
:10044000334602220021284601F038F908343246AA
:100450000C21284601F04DF9302CE8D14FF4E06032
:1004600001F040FA1B4A1C48136843F42053136000
:100470001A4B42F6D4121A6001F055FA1849194A7B
:100480000B68024013430B60174B012218600023D6
:100490001946104601F06EFA0120FFF78FFE012287
:1004A00010460023022101F065FA002304220321F3
:1004B000012001F05FFA012240F2312310460421AD
:1004C00001F058FA094B40F2AB221A60F8BD00BFA8
:1004D00004210008400100A000000020440100A009
:1004E000480100A000F0F0004C0100A0540100A061
:1004F00030B5451E0020B1FBF2F402FB141101F1EE
:100500003003392BC8BF01F13703013005F8013F33
:100510002146002CEFD130BD2DE9F04FDFF8F081FE
:1005200085B007460E46924600253078002800F038
:10053000EA80252804D00136B8470135D346DEE0ED
:100540007078302804D02D2808D04FF4907301E043
:100550004FF498730236C8F8003004E02023C8F83E
:100560000030B07803360024A0F13003092B07D8FF
:100570000A2303FB0400A0F1300416F8010BF3E793
:100580002E280CD130780136A0F13003092B06D883
:1005900016F8010BF8E7682806D116F8010B20F0D1
:1005A00020034C2BF7D1F8E7A0F14103192B98BF9A
:1005B00080F020006F281BD00DDC63285BD005DCA9
:1005C000252840F09E80B84701359AE064283FD046
:1005D00069283DD095E0732860D002DC712807D0EF
:1005E0008FE0752806D0782840F08B80102202E03A
:1005F000082200E00A22DAF800106846FFF778FFC8
:100600000AF1040B4FF0000982460AEB0900D8F802
:100610000020201A554420EAE074D305254406D56D
:1006200014F1FF3403D398F80000B847F8E7B9F1A4
:10063000000F01D02D20B84704AB9A44AAF1110A4B
:100640000DF1FF39D1454BD01AF80109B847F9E748
:10065000DAF800100029B8BF49424FF00A02684694
:10066000B4BF4FF001094FF00009FFF741FF0AF155
:10067000040B8246C9E7D8F80030D805254406D5D2
:1006800014F1FF3403D3D8F80000B847F8E7DAF8DC
:1006900000000AF1040BB847013521E00AF1040B10
:1006A000DAF800A05346CAEB030013F8012B002A26
:1006B000F9D1D8F800300544201A20EAE074D905B1
:1006C000254406D514F1FF3403D3D8F80000B84709
:1006D000F8E70AF1FF3A1AF8010F08B1B847FAE74C
:1006E000621C08BF0024D8F80030DB05254406D47E
:1006F00014F1FF3403D3D8F80000B847F8E7DA461E
:1007000013E7D346EFE7284605B0BDE8F08F00BFFA
:10071000980000200EB403B503AA52F8041B0192FE
:10072000FFF7FAFE02B05DF804EB03B0704700007B
:1007300013B540F2076001F0D5F8194C19480423AD
:100740000022012100F098FF4FF400530022012104
:10075000154800F091FF4FF420732046002202213B
:1007600000F08AFF4FF420720521204600F0C1FFFF
:1007700040F6940001F0B6F8A4F544440023019338
:1007800000931A460821204601F04EF8204601F059
:1007900046F8204602B0BDE8104001F034B800BF72
:1007A0000014024000080240000C024010B5054C45
:1007B0004FF48023236081B2034801F029F8042319
:1007C000236010BD180802400050014038B5094CA4
:1007D000094D4FF4005323604FF480232B6081B206
:1007E000064801F015F804232B604FF000532360F6
:1007F00038BD00BF180C02401808024000500140EC
:10080000F8B50C4C0C4D0D4E4FF4005323604FF4D3
:1008100080232B60C0F307210746304600F0F8FF25
:10082000F9B2304600F0F4FF04232B604FF0005380
:100830002360F8BD180C0240180802400050014027
:10084000F8B50D4B4FF400521A600C4A06464FF4AF
:100850008020106077181C461546BE4205D016F859
:10086000011B074800F0D4FFF7E704232B604FF08B
:1008700000532360F8BD00BF180C02401808024066
:100880000050014008B5324B4FF000521A60B120C1
:10089000FFF78CFF1B20FFF7B3FFC020FFF786FF99
:1008A0001020FFF793FFC120FFF780FF1020FFF714
:1008B0008DFFC520FFF77AFF44F21550FFF7A0FF28
:1008C000C720FFF773FF9020FFF780FF3620FFF768
:1008D0006DFFC820FFF77AFFB020FFF767FFC22047
:1008E000FFF774FF3A20FFF761FF5520FFF76EFF17
:1008F000B620FFF75BFF40F6A720FFF781FF42F22B
:100900000470FFF77DFF3220FFF758FC2620FFF729
:100910004DFF0120FFF75AFFE020FFF747FF0F21AF
:100920000C48FFF78DFFE120FFF740FF0F210A4839
:10093000FFF786FF1120FFF739FFC820FFF73EFCC5
:100940002920FFF733FF1420BDE80840FFF736BC2D
:10095000180C0240342100084321000808B52A2061
:10096000FFF724FF0020FFF74BFFEF20FFF748FFC2
:100970002B20FFF71BFF0020FFF742FF40F23F1044
:10098000FFF73EFF2C20FFF711FF4FF416314FF019
:100990005040BDE80840FFF753BF90422DE9F041B9
:1009A000C2BF0446104622469942C8BF0C4640F2D8
:1009B0003F17C4BF19462346EF2AA8BFEF2220EAFB
:1009C000E0789F424FF02A0021EAE1761446A8BF62
:1009D0001F46FFF7EBFE4046FFF712FF2046FFF7EA
:1009E0000FFF2B20FFF7E2FE3046FFF709FF3846E6
:1009F000FFF706FF2C20FFF7D9FE4FF4F0754FEA02
:100A00004803C8EB040405FB0635013405F15045E5
:100A10006400BE4207DC28462146FFF711FF05F5BA
:100A2000F0750136F5E7BDE8F081520102F4F852A5
:100A3000CB0200F0F800104303F460431843C1F305
:100A4000421108437047824270B5BEBF044610464B
:100A500022468B42BEBF0C4619462346EF28049D12
:100A600020DCB1F5A07F1DDA40F23F14EF2AA8BFC9
:100A7000EF22A34221EAE171A8BF23464FF4F074AC
:100A80004C4320EAE07004F1504499420ADC0646E7
:100A9000964203DC24F816500136F9E704F5F074A9
:100AA0000131F2E770BD000013B50A4B044618602F
:100AB000FFF73EFEFFF7E6FEE3680093002140F2F9
:100AC0003F13EF220846FFF7BEFF02B0BDE810401B
:100AD000FFF744BF9C000020EE282FD8B1F59F7F80
:100AE0002CD8F02303FB0100154B1A681369926898
:100AF0004000012A00F1504007D0022A9BB206D1E3
:100B0000A0F8E231A0F8E031438003807047038011
:100B100043808380C38009B9083007E0A0F5EF72F5
:100B20001380A0F5EE7200F5F0701380038043800F
:100B30008380C380A0F8E231A0F8E431704700BFA1
:100B40009C0000202DE9F84F204C23680A285E699C
:100B500005D00D280BD104229A61BDE8F88F5A68A0
:100B6000111D9A6802FB01625A61BDE8F88F1F28C7
:100B70002ADD5D68A0F11F07013D6B1C22681DD0B6
:100B80005368D2F818A012687B435B1B4FF008082B
:100B900012F803B04FF080091BEA090F03D0314669
:100BA0005046FFF799FF23689B68B8F101089A4403
:100BB0004FEA6909F0D11E44013DDEE7936891696F
:100BC00003EBC3030B449361BDE8F88F9C00002046
:100BD0002DE9F84300EB020801EB03090446174630
:100BE0000D46404649461E46E41BFFF775FF1FB100
:100BF00049462046FFF770FFAD1B1EB1294640460F
:100C0000FFF76AFF29462046BDE8F843FFF764BFB7
:100C10002DE9F04107468846144655420026B44265
:100C200015DB3346224641463846FFF7D1FF2346BF
:100C3000324641463846FFF7CBFF3544731C5D19F9
:100C40005CBF04F1FF34A5EB44051E46E7E7BDE8B1
:100C5000F081000038B52A4D2A4C40F2026000F0C5
:100C600041FE28464FF480730022022100F004FD6B
:100C700020464FF400730022022100F0FDFC2846BC
:100C80004FF480730022012100F018FD4FF400732F
:100C900020460022012100F011FD28464FF4807209
:100CA000042100F026FD4FF400720421204600F0DC
:100CB00020FDA4F5D63440F6170000F013FE2046C0
:100CC00000F061FD204600F041FD204600F073FD7C
:100CD000204600F085FD2046002100F08BFD2046D7
:100CE000182100F05FFD2046782100F069FD2046C4
:100CF0000A2100F06BFD2046BDE8384000F03EBD03
:100D00000000024000080240F8B5254D254C07467A
:100D100028680023236000F11802136813F002060C
:100D200005D02368632BF8D94FF0FF30F8BD00F0F1
:100D30002FFD2868266000F1180100F114063268C2
:100D40000B681340DB0705D42368632BF7D96FF0DA
:100D50000100F8BD0022412100F03AFD286800237F
:100D6000236000F114021368990705D42368632BEC
:100D7000F9D96FF00200F8BD3946836900F019FD1A
:100D8000002323602B6814331A68520705D42268A5
:100D9000632AF9D96FF00300F8BD0020F8BD00BF49
:100DA000240000204C00002070B50E46FFF7ACFF79
:100DB0000446B0B90D4D3146286800F0FAFC0C4BE2
:100DC00028681C6000F114010A6812F0840F05D134
:100DD0001A68632AF8D96FF0040404E000F0DDFC1F
:100DE00001E04FF0FF34204670BD00BF240000201A
:100DF0004C00002070B5FFF787FF0646002848D159
:100E0000254C264D206800F0C3FC20682E6000F1C0
:100E1000180100F1140632680B681340DB0705D493
:100E20002B68632BF7D96FF0090070BD01224121B7
:100E300000F0CEFC206800232B6000F11402136840
:100E4000990705D42B68632BF9D96FF00A0070BDA0
:100E500000F0CBFC2068836900F09FFC2068002331
:100E60002B6000F1140213685B0605D42B68632B1A
:100E7000F9D96FF00B0070BD00F0AFFC054620689B
:100E800000F0AEFC2268536923F480635361284666
:100E900070BD4FF0FF3070BD240000204C000020DA
:100EA00070B5FFF731FF054600285BD12F4C304E5F
:100EB000206800F06DFC2068356000F1180100F139
:100EC00014052A680B681340DB0705D43368632BCD
:100ED000F7D96FF0100070BD0122412100F078FCBD
:100EE00020680023336000F114021368990705D4C9
:100EF0003368632BF9D96FF0110070BD00F070FCFE
:100F0000206883690023336043695A0605D4336837
:100F1000632BF9D96FF0120070BD00F05EFC05463E
:100F2000206800F062FC206800F037FC2068002395
:100F3000336000F1140213685B0605D43368632B39
:100F4000F9D96FF0130070BD00F047FC40EA0525A9
:100F5000206800F045FC2268536923F480635361E4
:100F6000284670BD4FF0FF3070BD00BF2400002048
:100F70004C0000202DE9F84388461746FFF7C4FED1
:100F8000064600285AD1304C304D206800F000FC55
:100F900020682E6000F1140E00F11801DEF8002028
:100FA0000B681340DA0705D42B68632BF6D96FF072
:100FB000100645E00122412100F00AFC20680023D0
:100FC0002B6000F1140213689B0705D42B68632B78
:100FD000F9D96FF0110633E000F002FC23689A693A
:100FE00000222A605A69500605D42A68632AF9D972
:100FF0006FF0120624E0013F08F1FF384FF00009BE
:101000007B1C1DD020682FB900F0EFFB206800F09A
:10101000C4FB01E000F0E4FB2068C5F8009000F19B
:1010200014021368590603D42B68632BF9D9DFE740
:1010300000F0D3FB013F08F8010FE1E74FF0FF3666
:101040003046BDE8F88300BF240000204C0000209B
:1010500038B5FFF7FFFD0020FFF722FF40F6110330
:10106000984202D04FF0FF3038BD064D00242B19B6
:10107000285D5978FFF798FE0028F3D102341C2C24
:10108000F5D138BD522100082DE9F04FA3B0074635
:101090000B200E460092FFF7ADFE10F0020F8046C7
:1010A00031D04C20FFF7A6FE002840F3C580082869
:1010B000A8BF0820820002A90446D720FFF75AFFE4
:1010C00002A9002302A84A7810F823E0100940EA98
:1010D0000E100DF1280E12024EF82300887802F44B
:1010E0007062024312A8043140F823201AAA11F8B2
:1010F000010C42F823000133A342E3DB02210B2061
:10110000FFF752FE01E04FF0FF3418F0010F03D05B
:1011100001210B20FFF748FE022C0A9A129B1A9914
:1011200005DC3A603360009B2046196086E00120B0
:101130000DF1280E5EF820E072440DF1480E5EF8C5
:1011400020E073440DF1680E5EF820E00130844227
:101150007144EDD192FBF4FA93FBF4FB4FF00009DC
:10116000CE46CC460DF148080AA858F82C8050F815
:101170002C00CBEB0808CAEB000008FB08F800FBCA
:1011800000804845C8BFE6460CF1010CC8BF814647
:101190006445E7D1B9F1C80F42DD22A800EB8E0EFD
:1011A0005EF8600C121A5EF8400C1B1A5EF8200CF8
:1011B000091A601E022834D092FBF0F593FBF0FB75
:1011C0004FF0000A0195D446D0460DF148090DF1C3
:1011D000280E59F828905EF828E0019DCBEB09090C
:1011E000C5EB0E0E09FB09F90EFB0E9ED645C8BFD6
:1011F000C44608F10108C8BFF2464045E5DCBAF133
:10120000C80F0EDD22A800EB8C0C5CF8600C121AE3
:101210005CF8400C1B1A5CF8200C091AA01E00E0B8
:10122000204693FBF0F392FBF0F23A603360009BB0
:1012300091FBF0F1196001E04FF0FF3023B0BDE801
:10124000F08F00002DE9F04FFF210126044687B002
:10125000DF2286600846FFF7E8FB002323618C232A
:1012600063610E23E060A3612046FFF71DFCFFF7DA
:10127000EFFE054630B168496848FFF74BFA4FF07A
:10128000FF35C5E066496548DFF8B4B1FFF742FABB
:101290009E2363610423A361624960484FF0030AFF
:1012A000FFF738FA28211E20C4F808A0FFF714FC25
:1012B000082228211E20FFF7ABFCA6604FF0FF3666
:1012C000FFF74CFB37460595A8464FF03C09DBF885
:1012D00000301B040CD405AA04A903A8FFF7D4FE10
:1012E000B8F1000F08BF4FF001084FF03C098BE048
:1012F000B9F1000F03D0B9F1010940F08580B8F1D0
:10130000010F2BD1E368C4F808A0282200931E2106
:1013100032231420039F049EFFF795FB32232822DB
:101320001E211420FFF739FB4FF48C71C820FFF702
:10133000D3FB08224FF48C71C820FFF769FC4FF4EF
:101340009173D2224FF48771BE20FFF726FB4EF631
:101350006029C4F808804FF0020855E0B8F1020F88
:1013600050D1DDF80C80049C2F493048A7F52F623E
:1013700040F64E43B2F52F7F88BF1F46A6F5C873CF
:10138000B3F5167FA8F5C87388BF4FF4487640F6CA
:10139000B732B3F5167F40F6855388BF4FF42F78E8
:1013A0009442D8BF1C460194CDF8008033463A469B
:1013B000FFF7B0F91E4B1F49C7EB08084FF42A226C
:1013C00092FBF8F21A607A43A41B4FF470231213B5
:1013D00093FBF4F30B601849C2F11E0273430A60D9
:1013E0001B13164AC3F12803136000214FF6FF7345
:1013F0000093EF2240F23F130846FFF724FBFFF76C
:10140000ADFA05E04FF000090120FEF7D7FE5EE7D8
:10141000284607B0BDE8F08F6E210008450B000894
:1014200073210008862100089E2100084903000856
:101430001C00002020000020A0000020A4000020AC
:101440001000024037B505460C46684601A9FFF773
:101450001BFE0E4B1A68009B5A430D4B1B6803EB97
:1014600022332B600B4B1A68019B5A430A4B1B68B3
:1014700003EB223323602B6823EAE3732B6023689A
:1014800023EAE373236003B030BD00BF1C000020DB
:10149000A000002020000020A400002004281CD868
:1014A000DFE800F003080D1217000C4A13689901D9
:1014B000FCD57047094A13689B03FCD57047074A5F
:1014C00013689807FCD57047054A13689907FCD53F
:1014D0007047044A13689B07FCD5704700380240E8
:1014E0007038024074380240042817D8DFE800F052
:1014F00003080D0F11000A4A136843F080730CE0D3
:10150000074A136843F4803307E0054A02E0054ABE
:1015100000E0054A136843F001031360704700BF01
:10152000003802407038024074380240042817D84E
:10153000DFE800F003080D0F11000A4A136823F0DA
:1015400080730CE0074A136823F4803307E0054AF0
:1015500002E0054A00E0054A136823F00103136026
:10156000704700BF003802407038024074380240B3
:10157000034A136823F0030318431060704700BF49
:1015800008380240034A136823F4604343EA4030BA
:101590001060704708380240034A136823F4E05390
:1015A00043EA80201060704708380240034A1368FD
:1015B00023F0F00343EA001010607047083802403F
:1015C00040EA036343F480035208013A43EA81117D
:1015D00041EA0243014A1360704700BF04380240E9
:1015E00010B504460220FFF77FFF0220FFF756FFE9
:1015F0000020FFF7BDFF0120FFF776FF0120FFF776
:101600004DFFE07B00B1012000F066FA207BFFF780
:10161000CDFF607BFFF7C0FFA07BFFF7B3FF6379CF
:10162000227961882078FFF7CBFF0F4B1A6842F0D0
:1016300080721A601A689201FCD5A06800F048F91F
:101640000220FFF795FF094B186800F003000228FD
:10165000FAD1074B22691A60064B62691A60BDE82D
:101660001040FFF763BF00BF003802400838024057
:10167000280000202C0000202DE9F0410568C468F6
:1016800000264FF0030C43FA06F7FF070FD577004B
:101690000CFA07FE6FEA0E0E01FA07F80EEA0505CE
:1016A0000EEA040402FA07F748EA05053C4301364E
:1016B000102EE8D10560C460BDE8F08101294168C1
:1016C0000CBF19439943F0B541608168002403269B
:1016D00043FA04F5ED0707D5650006FA05F721EA98
:1016E000070102FA05F529430134102CF0D181607D
:1016F000F0BDF0B5076A466A00234FF00F0E42FABC
:1017000003F4E50707D59D000EFA05F427EA040760
:1017100001FA05F52F430133082BF0D100234FF0D8
:101720000F0E03F1080442FA04F4E40707D59C0005
:101730000EFA04F526EA050601FA04F426430133FD
:10174000082BEED107624662F0BD00000A4B9842BA
:101750000AD003F58063984209D0A3F5006398424C
:1017600009D140F2154004E040F2164001E040F299
:10177000174000F0C5B8704700580040036843F0B8
:10178000010303607047036823F00103036070479F
:10179000036843F4807303607047036843F4007385
:1017A00003607047436823F03F039BB219434160D5
:1017B000704701617047C36923F40043C3617047F8
:1017C000C36903F470431943C161704701627047F4
:1017D00042EA4102D2B2026170470069C0B270476A
:1017E000036843F4806303607047036823F48063F5
:1017F00003607047C36911B923F4804301E043F4E7
:101800008043C3617047036843F04003036070473F
:10181000C1608368DB07FCD5C06880B2704743684D
:1018200043F004034360704770B5059C056844F0BD
:101830000406049C344323431A43436805F441558A
:10184000114341EA050443F00403436004600020AF
:1018500070BD0000084A094B10B520F48064944222
:101860001B6804BF064B1B6801EB43034900B3FB35
:10187000F1F3836010BD00BF00100140280000207C
:101880002C000020C36808290CBF23F4805343F4C4
:101890008053C3607047036923F4405319430161C7
:1018A0007047C36823F4C0631943C1607047C368BD
:1018B00023F00C031943C1607047436923F440735C
:1018C000194341617047C36843F40053C3607047D4
:1018D000034A136823F0070318431060704700BFE2
:1018E000003C0240430903F1804303F50E3300F04E
:1018F0001F001A68012101FA00F0104318607047B8
:10190000430903F1804303F50E330122196800F007
:101910001F0002FA00F040EA01021A601A6822EA87
:101920000000186070470168C2680139090601F0BB
:10193000706341680139090501F470011943836935
:10194000013B03F00F030B43816801390904013A9D
:1019500001F4702112030B4392B21A4303694069E8
:10196000013B1B02013803F4706300011343C0B252
:1019700018437047022810B598BF144C4FEA432310
:1019800094BF205C002043EA42120243062916D885
:10199000DFE801F004150D070A10130042F0010200
:1019A0000DE042F003020AE042F0040207E042F0D8
:1019B000020204E042F0050201E042F0060204499E
:1019C0000B689B06FCD4034B1A6010BD2022000854
:1019D000580100A0500100A0FEE770471A4C1B49B7
:1019E0001B4800225318834203D213595350043228
:1019F000F8E7184A0021934202D219600433FAE74B
:101A0000154A164C1368164D43F400731360536F58
:101A100043F470035367AC4203D254F8043B984735
:101A2000F9E7104C104DAC4203D254F8043B9847F0
:101A3000F9E7FEF725FC0D4C0D4DAC4203D254F8EE
:101A4000043B9847F9E700BF24220008000000206B
:101A500030000020A800002014ED00E0242200083F
:101A6000242200082422000824220008242200083E
:101A700024220008024B20F07F401860704700BF0E
:101A800014E000E0044A136800F0040023F00403AB
:101A900018431060704700BF10E000E0024A13686E
:101AA00043F002031360704710E000E0024A13683D
:101AB00043F001031360704710E000E0054B42095A
:101AC00003EB820300F01F00012202FA00F018600D
:101AD000704700BF00E100E020B9064A136843F4F4
:101AE000804305E0012804D1024A136803F48043CF
:101AF000136070470070004043616C63756C6164F3
:101B00006F72610000000000000000000000000093
:101B1000000000000000183C3C3C18181800181881
:101B2000000000000066666624000000000000005F
:101B3000000000000000006C6CFE6C6C6CFE6C6CB5
:101B40000000000018187CC6C2C07C060686C67C51
:101B50001818000000000000C2C60C183060C686CD
:101B6000000000000000386C6C3876DCCCCCCC7601
:101B70000000000000303030600000000000000075
:101B80000000000000000C18303030303030180CED
:101B900000000000000030180C0C0C0C0C0C18306D
:101BA000000000000000000000663CFF3C660000F2
:101BB00000000000000000000018187E1818000047
:101BC00000000000000000000000000000181818CD
:101BD0003000000000000000000000FE00000000D7
:101BE00000000000000000000000000000001818C5
:101BF000000000000000000002060C183060C080E9
:101C00000000000000003C66C3C3DBDBC3C3663CCE
:101C10000000000000001838781818181818187EEE
:101C20000000000000007CC6060C183060C0C6FE34
:101C30000000000000007CC606063C060606C67CC6
:101C40000000000000000C1C3C6CCCFE0C0C0C1EB8
:101C5000000000000000FEC0C0C0FC060606C67CF6
:101C60000000000000003860C0C0FCC6C6C6C67CCC
:101C7000000000000000FEC606060C1830303030B0
:101C80000000000000007CC6C6C67CC6C6C6C67C76
:101C90000000000000007CC6C6C67E0606060C7862
:101CA00000000000000000001818000000181800D4
:101CB0000000000000000000181800000018183094
:101CC00000000000000000060C18306030180C0600
:101CD0000000000000000000007E00007E00000008
:101CE000000000000000006030180C060C18306086
:101CF0000000000000007CC6C60C18181800181858
:101D0000000000000000007CC6C6DEDEDEDCC07C19
:101D100000000000000010386CC6C6FEC6C6C6C66D
:101D2000000000000000FC6666667C66666666FC75
:101D30000000000000003C66C2C0C0C0C0C2663CDB
:101D4000000000000000F86C6666666666666CF867
:101D5000000000000000FE6662687868606266FE4F
:101D6000000000000000FE6662687868606060F055
:101D70000000000000003C66C2C0C0DEC6C6663A75
:101D8000000000000000C6C6C6C6FEC6C6C6C6C65F
:101D90000000000000003C18181818181818183C0B
:101DA0000000000000001E0C0C0C0C0CCCCCCC78FD
:101DB000000000000000E666666C78786C6666E6F7
:101DC000000000000000F06060606060606266FE1D
:101DD000000000000000C3E7FFFFDBC3C3C3C3C3B1
:101DE000000000000000C6E6F6FEDECEC6C6C6C68F
:101DF0000000000000007CC6C6C6C6C6C6C6C67CBB
:101E0000000000000000FC6666667C60606060F0B8
:101E10000000000000007CC6C6C6C6C6C6D6DE7C72
:101E20000C0E00000000FC6666667C6C666666E66A
:101E30000000000000007CC6C660380C06C6C67CE8
:101E4000000000000000FFDB991818181818183C53
:101E5000000000000000C6C6C6C6C6C6C6C6C67C10
:101E6000000000000000C3C3C3C3C3C3C3663C1863
:101E7000000000000000C3C3C3C3C3DBDBFF666612
:101E8000000000000000C3C3663C18183C66C3C3D2
:101E9000000000000000C3C3C3663C181818183CBB
:101EA000000000000000FFC3860C183060C1C3FFB3
:101EB0000000000000003C30303030303030303C2A
:101EC0000000000000000080C0E070381C0E060218
:101ED0000000000000003C0C0C0C0C0C0C0C0C3C2A
:101EE0000000000010386CC6000000000000000078
:101EF00000000000000000000000000000000000E2
:101F000000FF00003030180000000000000000005A
:101F1000000000000000000000780C7CCCCCCC76E7
:101F2000000000000000E06060786C666666667C19
:101F30000000000000000000007CC6C0C0C0C67CDD
:101F40000000000000001C0C0C3C6CCCCCCCCC760F
:101F50000000000000000000007CC6FEC0C0C67C7F
:101F6000000000000000386C6460F060606060F0A9
:101F700000000000000000000076CCCCCCCCCC7C73
:101F80000CCC78000000E060606C7666666666E601
:101F90000000000000001818003818181818183C25
:101FA0000000000000000606000E060606060606F3
:101FB00066663C000000E06060666C78786C66E6FF
:101FC0000000000000003818181818181818183CDD
:101FD000000000000000000000E6FFDBDBDBDBDBD5
:101FE000000000000000000000DC666666666666B1
:101FF0000000000000000000007CC6C6C6C6C67C0B
:10200000000000000000000000DC66666666667C7A
:102010006060F000000000000076CCCCCCCCCC7C22
:102020000C0C1E000000000000DC7666606060F0B2
:102030000000000000000000007CC660380CC67C78
:10204000000000000000103030FC30303030361C12
:10205000000000000000000000CCCCCCCCCCCC7642
:10206000000000000000000000C3C3C3C3663C18AA
:10207000000000000000000000C3C3C3DBDBFF66FC
:10208000000000000000000000C3663C183C66C36E
:10209000000000000000000000C6C6C6C6C6C67E1E
:1020A000060CF8000000000000FECC183060C6FEF0
:1020B0000000000000000E18181870181818180EEC
:1020C0000000000000001818181800181818181838
:1020D000000000000000701818180E18181818706A
:1020E00000000000000076DC00000000000000009E
:1020F000000000000000000010386CC6C6C6FE00DC
:1021000000000000000402406000000000080240DF
:1021100001000000000C024003C700000010024054
:1021200083FF0000001402403FF800000018024046
:10213000338100000F29240C0E094E783C09130549
:1021400017110000161B041107313342050C0A2831
:102150002F0F040C0A02204821011700419A4A055A
:102160004B014B005607580040010BFF0901457217
:10217000726F00546F717565206E6F20616C766FA1
:1021800020706172610063616C6962726172206FBC
:1021900020546F7563682053637265656E007831F3
:1021A0003D252D34642079313D25640D0A78323D7A
:1021B000252D34642079323D25640D0A000000008D
:1021C0000800600002020000030600000005040190
:1021D000001BB70000366E01080050010407000024
:1021E000020600000004000080DE800200BD010540
:1021F0000800F000020500000306000000050401CD
:1022000080C3C90100879303080050010207000042
:10221000050600000005040080DE800200BD010507
:04222000100818008A
:10222400020000000200000002000000070000009D
:10223400040000000700000002000000004000004D
:1022440000400000005C00400024F4000024F4007E
:04000005080019DDF9
:00000001FF
